:020000040000FA
:04000000023C3B3251
:01000B0032C2
:0100130032BA
:01001B0032B2
:0100230032AA
:03002B00020A4C7A
:01003300329A
:01003B003292
:01004300328A
:03004B00020B861F
:01005300327A
:01005B003272
:01006300326A
:20006B000206331201AE80FEC082C083E5812404F5817C007D00C3EC9490ED648094814080
:20008B0003020175C374C89CE464808DF063F08095F0500B7490C39CFA74019DFB80048CCD
:2000AB00028D03E58124FBF886078F82C007C005C004C003C00278FA79857A051206D5D007
:2000CB0002D003D004D005D007E58124FDF8E4F608F6E58124FDF8C3E69A08E664808BF05A
:2000EB0063F08095F0501DE58124FDF8A98119E6F70809E6F7E58124FDF8740126F6E408A7
:20010B0036F680CE8F82C005C004C003C002781A79867A051206D5D002D003D004D005E50B
:20012B008124FDF8E4F608F674C8C39AFEE49BFFE58124FDF8C3E69E08E664808FF063F0C3
:20014B008095F0501DE58124FDF8A98119E6F70809E6F7E58124FDF8740126F6E40836F66D
:20016B0080CE0CBC00010D020081E58124FAF581227E0C7F787D07ED20E71CED24D7FBE4D5
:20018B003419FC8E828F83E0FAA3AE82AF838B828C83EAF01D80E090544978EA798A7A0586
:2001AB000206D5787F79097A001206D578F479FF7A021206D5788979867A051206D578A0A6
:2001CB0079857A051206D5758207781A79867A051206D590000112007378E979857A0412AA
:2001EB0006D5783F79D67A031206D590882775F00578C279067A001206D5785A798A7A058C
:20020B001206D590000212007390780575F08078C5798F7A051206D590781275F08078C5F0
:20022B00798F7A051206D590624AE0FFBF8D028042BF9502802CBFA5028005BFB5448011DE
:20024B0090782375F08078C5798F7A051206D5803190782A75F08078C5798F7A051206D559
:20026B00802090783175F08078C5798F7A051206D5800F90783875F08078C5798F7A05127A
:20028B0006D590783F75F08078C5798F7A051206D5906277E0FF0F8F8278F8798F7A05122A
:2002AB0006D590784775F08078C5798F7A051206D5785B79867A051206D59000007875793F
:2002CB00B87A051206D5E4C0E0C0E0C0E0901DC075F000780F79807A041206D51581158142
:2002EB001581784F79E27A041206D578A879907A051206D512017CE4C0E0C0E0C0E0901D3B
:20030B00FA75F000780F79807A041206D5158115811581907A24E493FDA3E493FEA3E493F2
:20032B00FFC007C006C0057401C0E0E4C0E0C005C006C007900081D002D001D0001206D505
:20034B0015811581D005D006D007907A14E493FDA3E493FEA3E493FFC007C006C00574015A
:20036B00C0E0E4C0E0C005C006C007900081D002D001D0001206D515811581D005D006D0E4
:20038B00077408C0E0E4C0E074D7C0E07419C0E0E4C0E09006F275F000787A79477A0012E4
:2003AB0006D5E58124FBF581783979BC7A041206D5E4C0E0C0E0C0E0901DAC75F000780F02
:2003CB0079807A041206D5158115811581E4C0E0C0E0C0E0901E2575F000780F79807A04F2
:2003EB001206D5158115811581789A79EE7A021206D590785075F0807856799D7A051206A9
:20040B00D5786179867A051206D5900004120073786779867A051206D590145DE0FF6052C3
:20042B00782B799D7A041206D5E5828583F045F0603B7865799D7A041206D5AE82AF83C0DE
:20044B0007C006786479097A001206D5AC82AD83D006D007EEC39CFEEF9DFF1EBEFF011F23
:20046B00EF30E7097870799A7A041206D590145DE4F0785179887A041206D5AE82AF83EEA2
:20048B00708E907ADEE493FDA3E493FEA3E493FFC007C005C006C007D002D001D000120622
:2004AB00D5AD82AE83D0078D088E09E5084509700302041B780079807A011206D5907AD572
:2004CB00E493FDA3E493FEA3E493FFC007C006C005785779847A011206D5AA82AB83ACF0F0
:2004EB00D005D006D007C0077480C0E0E4C0E0C005C006C0078A828B838CF0D002D001D035
:20050B00001206D5AD82AE8315811581D0078D088E09E5084509700302041B8508828509E8
:20052B0083784979847A011206D5907DE9E493FDA3E493FEA3E493FFC007C006C005C00555
:20054B00C006C007D002D001D0001206D5D005D006D00702041B20812090000A75F0407888
:20056B000E79927A051206D5AE82AF83EE4FB40100E433FE7003FF80027F01EF3395E0FE79
:20058B008F828E830206E7AE82AF83BE8105BF00028006BE8210BF000D740255ABFF7E0043
:2005AB008F828E8380039000000206E7AE82AF83BE8005BF00028008BE8167BF0064801DB8
:2005CB00438F02AF8C5307FE8F8CAFF35307FD8FF3AFFD5307FD8FFD9000018048E58124A1
:2005EB00FCF8E60846602DE5AB20E131E4C0E0C0E090000A75F040784F79917A051206D5D9
:20060B0015811581AF895307FD8F89C2C543AB02D2BD8009AFAB5307FD8FABC2BD90000172
:20062B0080039000000206E7C020C0E0C0F0C082C083C007C006C005C004C003C002C0019C
:20064B00C000C0D075D000C2AFE58930E14190000A75F040780E79927A051206D5E58285A1
:20066B0083F045F060297410C0E0E4C0E090000A75F040784F79917A051206D515811581EE
:20068B00907A1E75F080784679B87A041206D5AF895307FD8F89C2C5D2AFD0D0D000D001F8
:2006AB00D002D003D004D005D006D007D083D082D0F0D0E0D02032AFF0AE83E5829004979B
:2006CB00F0A3EEF0A3EFF00206E7C09FC8C0E0E9C0E0EA540F539FF0429FC822D09F22ADA5
:1506EB0082AE83AFF0E58124FBF8E60846700302077790085E0E
:20070000EDF0A3EEF0A3EFF0E58124F9F8C3744F9674810886F063F08095F050067E4F7FF5
:2007200001800AE58124F9F88606088607C006C007E58124F9F8E6C0E008E6C0E008E6C0C8
:20074000E090072D75F000787A79477A001206D5E58124FBF58124F9F8900855E6F008A3F9
:20076000E6F0758204784D79B37A031206D57828798E7A041206D5900855E4F0A3F00206DF
:20078000E7C082C083C0F0E5812415F58124DEF8E6084670030208F5E58124E9F88602088D
:2007A0008603088604E58124ECFF7E007D407410C0E0E4C0E0C002C003C0048F828E838DCE
:2007C000F0787A79477A001206D5E58124FBF58124E9F8741226FDE40836FE0886078D82A3
:2007E0008E838FF0124BC9FBA3124BC9FCE58124FCF8A60308A604E58124DEF8A9811919EE
:20080000E6F70809E6F70809E6F7E58124E9F88602088603088604C007C006C0057410C073
:20082000E0E4C0E0E58124F9F8E6C0E008E6C0E008E6C0E08A828B838CF0787A79477A0075
:200840001206D5E58124FBF581D005D006D0078D828E838FF0E58124DCF8E6123D7DA308D4
:20086000E6123D7DE58124E1F8E6C0E008E6C0E0E58124E1F8E6C0E008E6C0E008E6C0E04A
:20088000E58124E4F886820886830886F078EA79067A001206D5E58124FBF58124ECFF7E8B
:2008A000007D40E58124E9F886020886030886047410C0E0E4C0E0C007C006C0058A828BD4
:2008C000838CF0787A79477A001206D5E58124FBF58124E9F8741226FDE40836FE088607A2
:2008E0008D828E838FF0E58124FCF8E6123D7DA308E6123D7DE58124E8F5810206E7AE82C5
:20090000AF83C2AF8E048F051EBEFF011FEC4D700302091800020904D2AF0206E7AE82AFE6
:2009200083C007C006786479097A001206D5AC82AD83D006D007C007C006C005C0047864E5
:2009400079097A001206D5AA82AB83D004D005D006D007EAC39CFAEB9DFBC3EA9EEB9F4023
:20096000D50206E7850F828510830206E7AC11AD127E007F008C828D838EF0EF0206E7752E
:20098000C6C0AFC65307BF8FC6E59E20E6FB43C630E5C6B59EFB900000E595F0A3E4F0A324
:2009A000F0A3F0AC967D007E008E078D068C057C00900000E0F8A3E0F9A3E0FAA3E0FB90D3
:2009C0000000EC28F0ED39A3F0EE3AA3F0EF3BA3F0AC977D008D078C067D007C0090000073
:2009E000E0F8A3E0F9A3E0FAA3E0FB900000EC28F0ED39A3F0EE3AA3F0EF3BA3F090000053
:200A0000E0FCA3E0FDA3E0FEA3E0FF900000ECF074012DA3F0E43EA3F0E43FA3F0900000DB
:200A2000E0A3E0A3E0FEA3E08E97900000E0A3E0FDA3E0A3E08D96900000E0FCA3E0FDA382
:200A4000E0FEA3E0FF8C95D2AD0206E7C0E0C082C083C007C006C005C004C003C002C00126
:200A6000C000C0D075D000C2AF900000E595F0A3E4F0A3F0A3F0AC967D007E008E078D0674
:200A80008C057C00900000E0F8A3E0F9A3E0FAA3E0FB900000EC28F0ED39A3F0EE3AA3F062
:200AA000EF3BA3F0AC977D008D078C067D007C00900000E0F8A3E0F9A3E0FAA3E0FB90002B
:200AC00000EC28F0ED39A3F0EE3AA3F0EF3BA3F0900000E0FCA3E0FDA3E0FEA3E0FF900062
:200AE00000ECF074012DA3F0E43EA3F0E43FA3F0900000E0A3E0A3E0FEA3E08E97900000CE
:200B0000E0A3E0FDA3E0A3E08D96900000E0FCA3E0FDA3E0FEA3E0FF8C957401250FF50F8F
:200B2000E43510F510E50F547F6002800B74012511F511E43512F51290145D7401F0C2C701
:200B4000D2AFD0D0D000D001D002D003D004D005D006D007D083D082D0E03275E40975AFCB
:200B60000075E644C2DED2B90206E7AE82AF83ADE65305FB8DE68EDC8FDD43E60475AF00DA
:200B800043E6400206E7C020C0E0C0F0C082C083C007C006C005C004C003C002C001C0002C
:200BA000C0D075D000C2B9AFAF5307FD8FAFAFE65307BF8FE6784C79877A051206D5D2B914
:200BC000D0D0D000D001D002D003D004D005D006D007D083D082D0F0D0E0D02032E5812418
:200BE000FCC3C8C0E0C082E608467006E5824583601218E58296F58208E58396428208E5FE
:200C0000F0964582D082C8D0E0C822AFF0AE83E582901EB8F0A3EEF0A3EFF00206E7901EA6
:200C2000B8E4F0A3F0A3F00206E77E007F007CFD7D0674062CF582E43DF583E0FD7C00C04B
:200C400007C006C005C00475820278C579867A011206D515811581D006D0077CFD7D067458
:200C6000062CF582E43DF583E0FDBD113E900725E0FCA3E0FD8C068D077C257D078C828D4B
:200C800083A3A3E0FCA3E0FD8E028F03C3EC9AED9B4003020D277C257D078C828D83A3A33A
:200CA000E0FCA3E0FD8C068D07807C7CFD7D0674062CF582E43DF583E0FDBD063B9007256D
:200CC000E0FCA3E0FD8C068D077C257D078C828D83A3A3E0FCA3E0FD8E028F03C3EC9AED55
:200CE0009B50447C257D078C828D83A3A3E0FCA3E0FD8C068D07802F7CFD7D0674062CF574
:200D000082E43DF583E0FDBD3A1D900725E0FC7D007A257B078A828B83A3E0FB7A00420538
:200D2000EA42048D068C07C006C00775820178C579867A011206D5158115810206E7020611
:200D4000E7C082C083C0F0E5812405F581E4FBFCE58124FCF8E4F608F6C3EB9401EC64802E
:200D600094804003020E1DE58124FCF8E6240FF58208E6341DF583E0FFBF01028003020EF6
:200D800008C003C004E58124F7F8E58124FCF9E6F70809E6F70809E6F7E58124FAF8E6248D
:200DA0000FFA08E6341DFF74022AFAE43FFF7E00C004C0037408C0E0E4C0E0E58124F8F811
:200DC000E6C0E008E6C0E008E6C0E08A828F838EF078C579417A001206D5AE82AF83E581AF
:200DE00024FBF581D003D004D004D003EE4F7018E58124FCF8E6240FFE08E6341DFF7D00FB
:200E00008E828F838DF0801BE58124FCF8740A26F6E40836F60BBB00010C020D599000009D
:200E200075F000C8E58124F8F581C80206E7AF827D007E007B007C00C3ED9401EE64809408
:200E400080503BEB240FF582EC341DF583E0FABA011EEB240FF9EC341DFA89828A83A3E0A1
:200E6000F8B5070C8A007A00898288838AF08014740A2BFBE43CFC0DBD00BD0E80BA90006B
:200E80000075F0000206E7C082E5812406F58124F4F88604088605088606A8811818740820
:200EA0002CF6E43D08F608A606E58124F1F8E58124FBF9E6F70809E6F70809E6F7E5812409
:200EC000FBF886820886830886F0124BC9FF630702A881181886820886830886F0124BC9E1
:200EE000FBB5070280030210F774092CFAE43DFB8E07C004C005C006E58124F8F8740126F5
:200F0000FCE40836FD0886068A828B838FF0124BC9FA8C828D838EF0124BC9FCEAB5040206
:200F20008009D006D005D0040210F7D006D005D004740A2CFAE43DFB8E07C004C005C0067D
:200F4000E58124F8F8740226FCE40836FD0886068A828B838FF0124BC9FA8C828D838EF077
:200F6000124BC9FCEAB504028009D006D005D0040210F7D006D005D004740B2CFAE43DFB59
:200F80008E07C004C005C006E58124F8F8740326FCE40836FD0886068A828B838FF0124BB1
:200FA000C9FA8C828D838EF0124BC9FCEAB504028009D006D005D0040210F7D006D005D07F
:200FC00004740C2CFAE43DFB8E07C004C005C006E58124F8F8740426FCE40836FD088606A0
:200FE0008A828B838FF0124BC9FA8C828D838EF0124BC9FCEAB504028009D006D005D004CD
:201000000210F7D006D005D004740D2CFAE43DFB8E07C004C005C006E58124F8F874052688
:20102000FCE40836FD0886068A828B838FF0124BC9FA8C828D838EF0124BC9FCEAB50402E5
:201040008009D006D005D0040210F7D006D005D004740E2CFAE43DFB8E07C004C005C00658
:20106000E58124F8F8740626FCE40836FD0886068A828B838FF0124BC9FA8C828D838EF052
:20108000124BC9FCEAB504028008D006D005D0048065D006D005D004740F2CFAE43DFB8ECB
:2010A00007C004C005C006E58124F8F8740726FCE40836FD0886068A828B838FF0124BC951
:2010C000FA8C828D838EF0124BC9FCEAB504028008D006D005D004801ED006D005D004E5AA
:2010E0008124FAF886F005F07403800225E0D5F0FBFFF582021248A881181874082CF6E483
:201100003D08F608A606A881181886820886830886F0124BC9FBA3124BC9FF4B6003021146
:20112000E1740A2CFAE43DFB8E078A828B838FF0124BC960030211E1740B2CFAE43DFB8E14
:20114000078A828B838FF0124BC9FABAFF0280030211E1740C2CFAE43DFB8E078A828B832C
:201160008FF0124BC9FABAFE78740D2CFAE43DFB8E078A828B838FF0124BC97064740E2C07
:20118000FCE43DFD901D1CE0FAA3E0FBA3E0FF7402C0E0E4C0E0C004C005C0068A828B838F
:2011A0008FF0787A79477A001206D5E58124FBF581901D1CE0FDA3E0FEA3E0FF901D1C74B6
:2011C000022DF0E43EA3F0A3EFF0E58124FAF886F005F07402800225E0D5F0FBFFF582801F
:2011E00067A88118188605088606088607901D1CE0FAA3E0FBA3E0FC7408C0E0E4C0E0C07B
:2012000005C006C0078A828B838CF0787A79477A001206D5E58124FBF581901D1CE0FDA349
:20122000E0FEA3E0FF901D1C74082DF0E43EA3F0A3EFF0E58124FAF886F005F074018002D7
:2012400025E0D5F0FBFFF582E58124F9F5810206E7C082C083C0F0E5812404F58124F3F823
:20126000E58124FDF9E6C4540FF7E58124F3F8A9811919740F56F7E58124FDF8B60F047A87
:20128000108007E58124FDF88602E58124FDF8A602A8811818B60F047A108006A8811818FE
:2012A0008602A8811818A602E58124FDF8E6604CE58124FDF8A98119E6F7097700E58124EB
:2012C000F4F88605088606088607E58124FAF88602088603088604A88118E6C0E008E6C0D2
:2012E000E0C005C006C0078A828B838CF0787A79477A001206D5E58124FBF581E58124FD8B
:20130000F886047F00A881181886057E00ED2CFAEE3FFBC3EA9410EB64809480503EED2C54
:20132000FCEE3FFF7410C39CFCE49FFFE58124FAF8E58124FDF9E726FAE40836FD0886066E
:20134000C004C007E4C0E08A828D838EF0780E79477A001206D5158115811581A88118181C
:20136000E6700302141FA8811818A98119E6F7097700901D1CE0FAA3E0FCA3E0FDA8811803
:20138000187410C396FBE58124FAF8EB26FBE40836FE088607A88118E6C0E008E6C0E0C00B
:2013A00002C004C0058B828E838FF0787A79477A001206D5E58124FBF581A8811818B602E0
:2013C00040E58124FDF8B60B005036E58124FAF8740B26FDE40836FE0886078D828E838F85
:2013E000F074FF123D7DE58124FAF8740C26FDE40836FE0886078D828E838FF074FE123D8A
:201400007D901D1CE0FDA3E0FEA3E0FFA8811818901D1CE62DF0E43EA3F0A3EFF08034E5B1
:201420008124FDF8E6602CE58124F0F8E6C0E008E6C0E008E6C0E0E58124F7F8868208867D
:20144000830886F078F6799A7A031206D5158115811581E58124F9F5810206E7C082C08371
:20146000C0F0E581240BF581901BA3E0FAA3E0FBA3E0FC901D1C74022AF0E43BA3F0A3ECF2
:20148000F0E58124F6F87660E58124F7F87600901BA6E02AFAE43BFB74022AFAE43BFB8A72
:2014A000828B838CF0E4123D7D7CFD7D0674182CFCE43DFD7B008C828D838BF07841790D4F
:2014C0007A001206D5AB82AC83ADF0EB4C70267CFD7D0674082CFCE43DFD7B008C828D8388
:2014E0008BF07841790D7A001206D5AB82AC83ADF0EB4C6013E58124F7F87680901D1CE010
:201500002401F0A3E03400F09006FDE0FDC454F0FC7AFD7B068A828B83A3E0C4540F420499
:2015200074035C030354C0FBEC0303543F42038B047AFD7B068A828B83A3E0FB540F600215
:2015400080617AFD7B068A828B83A3A3E0FAA3E0FB4A704FE58124F6F87670ED540F6002E1
:20156000801B7AFD7B068A828B83A3E0FB54F06002800AE58124F6F876780216B7901D1C12
:20158000E0FAA3E0FBA3E0FF8A828B838FF0EC123D7D901D1C74012AF0E43BA3F0A3EFF094
:2015A0000216B7ED540F600302165E7BFD7D068B828D83A3E0FD54F0600302165EE58124F4
:2015C000F6F87668901D1CE0FAA3E0FBA3E0FDE58124F8F874C05CF67EFD7F068E828F837C
:2015E000A3E0FF740F5FC8E58124F8C8468A828B838DF0123D7D7EFD7F0674022EFEE43F07
:20160000FFE58124FCF8A60608A60708760074012AFAE43BFB8D077402C0E0E4C0E0E58127
:2016200024FAF8E6C0E008E6C0E008E6C0E08A828B838FF0787A79477A001206D5E58124B6
:20164000FBF581901D1CE0FDA3E0FEA3E0FF901D1C74032DF0E43EA3F0A3EFF08059901D56
:201660001CE0FBA3E0FDA3E0FFC0047404C0E0E4C0E074FDC0E07406C0E0E4C0E08B828DC8
:20168000838FF0787A79477A001206D5E58124FBF581D004901D1CE0FBA3E0FDA3E0FF8B2F
:2016A000828D838FF0EC123D7D901D1C74042BF0E43DA3F0A3EFF07DFD7F0674062DF582B2
:2016C000E43FF583E0FFBF1109E58124F6F8E64404F6E58124F6F8E620E231901D1CE0FCE5
:2016E000A3E0FDA3E0FF7AFD7B0674062AF582E43BF583E0FB8C828D838FF0123D7D901D4D
:201700001C74012CF0E43DA3F0A3EFF07DFD7F0674072DF582E43FF583E0FFBF0102800A02
:20172000BF40028010BFFF238016E58124F6F8E64401F68047E58124F6F8E64402F6803CEB
:20174000E58124F6F8E64403F68031901D1CE0FCA3E0FDA3E0FF7AFD7B0674072AF582E49E
:201760003BF583E0FB8C828D838FF0123D7D901D1C74012CF0E43DA3F0A3EFF07DFD7F06E3
:2017800074082DF582E43FF583E0FDA3E0FF4D60030218367DFD7F06740A2DF582E43FF5F6
:2017A00083E0FDA3E0FF4D60030218367DFD7F06740C2DF582E43FF583E0FDA3E0FF4D706D
:2017C000757DFD7F06740E2DF582E43FF583E0FDA3E0FF4D70607DFD7F0674102DF582E44D
:2017E0003FF583E0FDA3E0FF4D704B7DFD7F0674122DF582E43FF583E0FDA3E0FF4D7036B5
:201800007DFD7F0674142DF582E43FF583E0FDA3E0FF4D70217DFD7F0674162DF582E43F75
:20182000F583E0FDA3E0FF4D700CE58124F7F8E64440F6021A0D7DFD7F0674082DFDE43F3E
:20184000FF7C008D828F838CF07841790D7A001206D5AC82AD83AFF0901D19ECF0A3EDF0AB
:20186000A3EFF0EC4D7003021913E58124F7F8E644C0F6901BA6E58124FCF8E0F6901BA3C0
:20188000E0FAA3E0FBA3E0FEE58124FCF8E62AFAE43BFBE58124FCF874022AF6E43B08F69C
:2018A00008A606E58124FCF886820886830886F0124BC9FE0CBC00010D8C828D838FF012B6
:2018C0004BC9C454F04206E58124FCF886820886830886F0EE123D7D7EFD7F0674082EFE2D
:2018E000E43FFF7D0074F2C0E07406C0E0E4C0E0C006C007C0057582047887790E7A001246
:2019000006D5AF82E58124FAF58124F7F8EF46F6021A0D7EFD7F0674082EF582E43FF5839E
:20192000E0FFBFFE0280030219BA7EFD7F0674092EF582E43FF583E0FFBF80028003021936
:20194000BA7EFD7F06741A2EF582E43FF583E0FEA3E0FF4E70647EFD7F06741C2EF582E464
:201960003FF583E0FEA3E0FF4E704F7EFD7F06741E2EF582E43FF583E0FEA3E0FF4E703A19
:201980007EFD7F0674082EFEE43FFF7D0074F2C0E07406C0E0E4C0E0C006C007C005758213
:2019A000047887790E7A001206D5AF82E58124FAF58124F7F8EF46F680537EFD7F0674087E
:2019C0002EFEE43FFF7D00901D1CE0FAA3E0FBA3E0FC7410C0E0E4C0E0C006C007C0058A18
:2019E000828B838CF0787A79477A001206D5E58124FBF581901D1CE0FDA3E0FEA3E0FF908E
:201A00001D1C74102DF0E43EA3F0A3EFF07EFD7F0674182EF582E43FF583E0FFBFFF0280CA
:201A200003021D68E58124F7F8E64408F67EFD7F0674192EF582E43FF583E0FFBF0202808C
:201A400003021B1A7EFD7F06741A2EF582E43FF583E0FEA3E0FF4E6003021B1A7EFD7F0636
:201A6000741C2EF582E43FF583E0FEA3E0FF4E6003021B1A7EFD7F06741E2EF582E43FF5FF
:201A800083E0FEA3E0FF4E6003021B1A7EFD7F0674202EF582E43FF583E0FEA3E0FF4E7089
:201AA000797EFD7F0674222EF582E43FF583E0FEA3E0FF4E70647EFD7F0674242EF582E434
:201AC0003FF583E0FEA3E0FF4E704F7EFD7F0674262EFEE43FFF8E828F83E0703DE58124C1
:201AE000F7F8E64403F6901D1CE0FDA3E0FEA3E0FF7BFD7C0674272BF582E43CF583E0FC80
:201B00008D828E838FF0123D7D901D1C74012DF0E43EA3F0A3EFF0021F4C7EFD7F06741ACD
:201B20002EF582E43FF583E0FEA3E0FF4E6003021C227EFD7F06741C2EF582E43FF583E064
:201B4000FEA3E0FF4E6003021C227EFD7F06741E2EF582E43FF583E0FEA3E0FF4E6003022F
:201B60001C227EFD7F0674202EF582E43FF583E0FEA3E0FF4E6003021C227EFD7F0674226C
:201B80002EF582E43FF583E0FEA3E0FF4E6003021C227EFD7F0674242EFEE43FFF8E828F2F
:201BA00083E06003021C22E58124F7F8E64402F6901D1CE0FDA3E0FEA3E0FF7BFD7C06746D
:201BC000192BF582E43CF583E08D828E838FF0123D7D7BFD7C0674252BFBE43CFC7A000D0B
:201BE000BD00010E7403C0E0E4C0E0C003C004C0028D828E838FF0787A79477A001206D57D
:201C0000E58124FBF581901D1CE0FDA3E0FEA3E0FF901D1C74042DF0E43EA3F0A3EFF00289
:201C20001F4C7EFD7F06741A2EF582E43FF583E0FEA3E0FF4E6003021D127EFD7F06741C99
:201C40002EF582E43FF583E0FEA3E0FF4E6003021D127EFD7F06741E2EF582E43FF583E050
:201C6000FEA3E0FF4E6003021D127EFD7F0674202EF582E43FF583E0FEA3E0FF4E6003021B
:201C80001D127EFD7F0674222EFEE43FFF8E828F83E06003021D12E58124F7F8E64401F601
:201CA000901D1CE0FDA3E0FEA3E0FF7BFD7C0674192BF582E43CF583E08D828E838FF01229
:201CC0003D7D7BFD7C0674232BFBE43CFC7A000DBD00010E7405C0E0E4C0E0C003C004C040
:201CE000028D828E838FF0787A79477A001206D5E58124FBF581901D1CE0FDA3E0FEA3E085
:201D0000FF901D1C74062DF0E43EA3F0A3EFF0021F4C7EFD7F0674182EFEE43FFF7D0090D9
:201D20001D1CE0FAA3E0FBA3E0FC7410C0E0E4C0E0C006C007C0058A828B838CF0787A7998
:201D4000477A001206D5E58124FBF581901D1CE0FDA3E0FEA3E0FF901D1C74102DF0E43EA5
:201D6000A3F0A3EFF0021F4C7EFD7F0674182EFEE43FFF7D008E828F838DF07841790D7A32
:201D8000001206D5AD82AE83AFF0901D19EDF0A3EEF0A3EFF0ED4E7003021E4AE58124F718
:201DA000F8E64404F6901BA6E58124FCF8E0F6901BA3E0FAA3E0FBA3E0FCE58124FCF8E6D9
:201DC0002AFAE43BFBE58124FCF874022AF6E43B08F608A604E58124FCF886820886830843
:201DE00086F0124BC9FC0DBD00010E8D828E838FF0124BC94204E58124FCF88682088683D0
:201E00000886F0EC123D7DE58124F3F886050886060886077BFD7C0674182BFBE43CFC7A21
:201E200000C005C006C007C003C004C0027582007887790E7A001206D5AF82E58124FAF579
:201E40008124F7F8EF46F6021F4C7EFD7F0674182EF582E43FF583E0FFBFFE028003021E49
:201E6000F97EFD7F0674192EF582E43FF583E0FFBF80028003021EF97EFD7F06741A2EF52F
:201E800082E43FF583E0FEA3E0FF4E706C7EFD7F06741C2EF582E43FF583E0FEA3E0FF4E1D
:201EA00070577EFD7F06741E2EF582E43FF583E0FEA3E0FF4E7042E58124F3F8860508869B
:201EC000060886077BFD7C0674182BFBE43CFC7A00C005C006C007C003C004C00275820093
:201EE0007887790E7A001206D5AF82E58124FAF58124F7F8EF46F680537EFD7F0674182EFF
:201F0000FEE43FFF7D00901D1CE0FAA3E0FBA3E0FC7410C0E0E4C0E0C006C007C0058A827E
:201F20008B838CF0787A79477A001206D5E58124FBF581901D1CE0FDA3E0FEA3E0FF901DAD
:201F40001C74102DF0E43EA3F0A3EFF0901BA87428F07EFD7F0674062EF582E43FF583E014
:201F6000FFBF110280030222ED900725E0FEA3E08E077E00900725E0A3E0FC7D00EC420600
:201F8000ED42075306F0BEB005BFF002800302207E7E257F078E828F83A3A3E0FEA3E08EFB
:201FA000077E007C257D078C828D83A3A3E0A3E0FC7D00EC4206ED42075306F0BEB005BF52
:201FC000F002800302207E901D1CE0FDA3E0FEA3E0FF8D828E838FF074F3123D7DE58124E7
:201FE000FCF874012DF6E43E08F608A607900725E0FBA3E0E58124F9F808A603187600901C
:202000000725E0A3E0FA7C00E58124F9F8E6420208E64204EA2450FAE58124F9F8EAC4540D
:20202000F0F67B257C078B828C83A3A3E0FBA3E0A881A6031876007A257C078A828C83A397
:20204000A3E0A3E0FB7C00A88118E6420308E64204EB2450C8E58124F9C826FCE58124FC49
:20206000F886820886830886F0EC123D7D901D1C74022DF0E43EA3F0A3EFF002228E7E2531
:202080007F078E828F83A3A3E0FEA3E08E077E007C257D078C828D83A3A3E0A3E0FC7D0079
:2020A000EC4206ED42077E00BE0005BFF0028003022162901D1CE0FDA3E0FEA3E0FF8D8204
:2020C0008E838FF074F1123D7D7B257C077A000DBD00010E7402C0E0E4C0E0C003C004C0E8
:2020E000028D828E838FF0787A79477A001206D5E58124FBF581901D1CE0FDA3E0FEA3E081
:20210000FFE58124FCF874032DF6E43E08F608A6077B257C078B828C83A3A3E0FBA3E0A848
:2021200081A6031876007A257C078A828C83A3A3E0A3E0FB7C00A88118E6420308E64204EA
:20214000E58124FCF886820886830886F0EB123D7D901D1C74042DF0E43EA3F0A3EFF0021C
:20216000228E900725E0FEA3E08E077E00900725E0A3E0FC7D00EC4206ED42077E00BE0041
:2021800005BFF0028003022232901D1CE0FDA3E0FEA3E0FF8D828E838FF074F2123D7DE551
:2021A0008124FCF874012DF6E43E08F608A607900725E0FBA3E0A881A603187600900725E3
:2021C000E0A3E0FA7C00A88118E6420208E64204E58124FCF886820886830886F0EA123D39
:2021E0007D7B257C0774022BFBE43CFC7A0074022DFDE43EFE7402C0E0E4C0E0C003C0042C
:20220000C0028D828E838FF0787A79477A001206D5E58124FBF581901D1CE0FDA3E0FEA37F
:20222000E0FF901D1C74042DF0E43EA3F0A3EFF0805C901D1CE0FDA3E0FEA3E0FF8D828E08
:20224000838FF074F0123D7D7B257C077A000DBD00010E7404C0E0E4C0E0C003C004C002F1
:202260008D828E838FF0787A79477A001206D5E58124FBF581901D1CE0FDA3E0FEA3E0FF02
:20228000901D1C74052DF0E43EA3F0A3EFF07E257F0774062EFEE43FFF7D00901D1CE0FA97
:2022A000A3E0FBA3E0FC7402C0E0E4C0E0C006C007C0058A828B838CF0787A79477A001261
:2022C00006D5E58124FBF581901D1CE0FDA3E0FEA3E0FF901D1C74022DF0E43EA3F0A3EFDC
:2022E000F0901BA8E0FF901BA874082FF0901BA6E0FF901BA3E0FCA3E0FDA3E0FEEF2CFF59
:20230000E43DFB8E028F828B838AF0E58124F6F8E6123D7D0FBF00010B8F828B838AF0E5F6
:202320008124F7F8E6123D7D901D1CE0FAA3E0FBA3E0FFEAC39CFCEB9DFD901BA6ECF0E5D8
:202340008124F2F5810206E7C082C083E581240FF581901BA6E0FD901BA3E0FAA3E0FBA376
:20236000E0FCED2AFDE43BFB901D1C74022DF0E43BA3F0A3ECF08D828B838CF0124BC9FA0D
:20238000E58124F3F8A60274012DFAE43BFE8C078A828E838FF0124BC9FAE58124F4F8A6FC
:2023A00002E58124F4F8E630E70E901D1C74032DF0E43BA3F0A3ECF0E58124F3F8E630E49D
:2023C00003022512E58124F3F8E630E30302247B901D1CE0FCA3E0FDA3E0FE0CBC00010D33
:2023E0007AAD7B1B0ABA00010B7F007403C0E0E4C0E0C004C005C0068A828B838FF0787A5C
:2024000079477A001206D5E58124FBF581901D1CE0FDA3E0FEA3E0FF8D828E838FF0124BF5
:20242000C9FCE58124F2F8A604901D1C74042DF0E43EA3F0A3EFF0E58124F2F8E603035470
:202440003FFF740F5F4460901BADF07DAD7E1B0DBD00010E530730E58124F2F8E603035496
:20246000C042077BAD7C1B8B828C83A3E0540FFC42078D828E83EFF00225A4901BAD746057
:20248000F07DAD7E1BE58124F7F874012DF6E43E08F6901D1CE0FAA3E0FBA3E0FC8A828B21
:2024A000838CF0124BC9FF740F5FFEEF0303543FFF74305F4206E58124F7F88682088683B4
:2024C000EEF00ABA00010B7EAD7F1B74022EFEE43FFF7D007402C0E0E4C0E0C002C003C069
:2024E000048E828F838DF0787A79477A001206D5E58124FBF581901D1CE0FDA3E0FEA3E07B
:20250000FF901D1C74032DF0E43EA3F0A3EFF00225A4E58124F3F8E620E36A901D1CE0FCF0
:20252000A3E0FDA3E0FE8C828D838EF0124BC9FBE58124F7F8EB0303543FF6E58124F7F871
:20254000740F564460901BADF07AAD7F1B8A828F83A3EB030354C0FB5303C0E58124F7F8A5
:202560007430564203EBF07BAD7F1B8B828F83A3A3E4F0A3F0901D1C74012CF0E43DA3F0A5
:20258000A3EEF0801F901BAD7460F07DAD7E1B8D828E83A3E4F07DAD7E1B8D828E83A3A37C
:2025A000E4F0A3F0E58124F3F8E620E2337DAD7E1B74062DFDE43EFE901D1CE0FAA3E0FB7C
:2025C000A3E0FC8A828B838CF0124BC9FF8D828E83F0901D1C74012AF0E43BA3F0A3ECF028
:2025E000E58124F3F8E65403601F7DAD7E1B74072DFDE43EFEE58124F3F8740356907E0BC7
:2026000093FC8D828E83F080337DAD7E1B74072DFDE43EFE901D1CE0FAA3E0FBA3E0FC8AB6
:20262000828B838CF0124BC9FF8D828E83F0901D1C74012AF0E43BA3F0A3ECF0E58124F452
:20264000F8743056C4540FFEE58124F2F874035EF6E58124F4F8E620E60302275CE58124B0
:20266000F4F8E630E72D901BA6E0FE901BA3E0FBA3E0FCA3E0FDEE2BFBE43CFC74022BFB21
:20268000E43CFC8B828C838DF0124BC9FBC4540FFE80027E00E58124F2F8E660238E8278DA
:2026A0002E790E7A001206D5AC82AD83AEF0901D19ECF0A3EDF0A3EEF0EC4D7003022E661D
:2026C000758218783979877A011206D5AC82AD83AEF0E58124F2F8E62401F582E4347EF555
:2026E00083E58124F7F8E493F6E58124F2F8E6601D901D19E0FAA3E0FBA3E0FFE58124F977
:20270000F874022AF6E43B08F608A607800CE58124F9F8E4F608F60876007AAD7F1B7408BF
:202720002AFAE43FFB7F00C004C005C006E58124F4F8E6C0E0E58124F5F8E6C0E008E6C0E2
:20274000E008E6C0E08A828B838FF0785179127A001206D5E58124F9F58180657582187852
:202760003979877A011206D5AD82AE83AFF0E58124F2F8E624FDF582E4347DF583E5812430
:20278000F9F8E493F67AAD7B1B74082AFAE43BFB7C00C005C006C007E58124F6F8E6C0E098
:2027A0007409C0E0747EC0E07480C0E08A828B838CF0785179127A001206D5E58124F9F50D
:2027C00081E58124F4F8740356FFE58124F2F874035FF6E58124F4F8E620E30302288BE5FA
:2027E0008124F4F8E630E2030229DEE58124F5F977FFE904F87602C000E58124F1F8E6D010
:20280000006032C000E58124F1F8B60300D0005024901D1CE0FDA3E0FEA3E0FF8D828E832D
:202820008FF0124BC9FCF6901D1C74012DF0E43EA3F0A3EFF0E58124F2F8E62405F582E491
:20284000347EF583E58124F9F8E493F689067D007C407AAD7B1B74182AFAE43BFBE4FFC074
:20286000E0C0E0C0E0E58124F6F8E6C0E0C006C005C0048A828B838FF0785179127A001272
:2028800006D5E58124F9F5810229DEE58124F4F8E620E203022979E58124F4F8E630E72EB5
:2028A000901BA6E0FF901BA3E0FCA3E0FDA3E0FEEF2CFFE43DFB8E0274022FFFE43BFB8FAA
:2028C000828B838AF0124BC9FF53070F80027F008F82782E790E7A001206D5AD82AE83AFAB
:2028E000F0901D19EDF0A3EEF0A3EFF0ED4E7003022E66758219783979877A011206D5AD28
:2029000082AE83AFF0E58124F2F8E62401F582E4347EF583E58124F9F8E493F6901D19E0D3
:20292000FAA3E0FBA3E0FCE58124FCF874022AF6E43B08F608A6047BAD7C1B74182BFBE468
:202940003CFC7A00C005C006C007E58124F6F8E6C0E0E58124F8F8E6C0E008E6C0E008E6F9
:20296000C0E08B828C838AF0785179127A001206D5E58124F9F581806575821978397987C7
:202980007A011206D5AD82AE83AFF0E58124F2F8E624FDF582E4347DF583E58124FCF8E46F
:2029A00093F67AAD7B1B74182AFAE43BFB7C00C005C006C007E58124F9F8E6C0E07409C0FB
:2029C000E0747EC0E07480C0E08A828B838CF0785179127A001206D5E58124F9F581901BFC
:2029E000A8E0FF901BA874282FF0E58124F3F8E620E203022D72901D1CE0FDA3E0FEA3E097
:202A0000FF8D828E838FF0124BC9FC74F85CFBBBF0028003022D727AAD7B1B74062AF5828A
:202A2000E43BF5837411F074045CFB5304F3BCF0028015BCF103022AEEBCF203022BA4BC26
:202A4000F303022C51022D0DC00374012DFAE43EFB8F048A078B068C057BD57C1B7A00C0E2
:202A6000037402C0E0E4C0E0C007C006C0058B828C838AF0787A79477A001206D5E581242E
:202A8000FBF581D003901D1CE0FAA3E0FBA3E0FC74032AFAE43BFB8A078B068C057BD57C1E
:202AA0001B74022BFBE43CFC7A00C0037402C0E0E4C0E0C007C006C0058B828C838AF0780C
:202AC0007A79477A001206D5E58124FBF581D003901D1CE0FAA3E0FBA3E0FC901D1C7405A5
:202AE0002AF0E43BA3F0A3ECF0D003022D10C00374012DFAE43EFB8F048A078B068C057B3C
:202B0000D57C1B7A00C0037402C0E0E4C0E0C007C006C0058B828C838AF0787A79477A005E
:202B20001206D5E58124FBF581D0037BD57C1B74022BFFE43CFE901D1CE58124F8F8E0F61C
:202B4000A3E008F6A3E008F6E58124F8F8740326FAE40836FB0886048A828B838CF0124BC0
:202B6000C9FA7C008A0574F02CFCA88118A6051876008C027C00A8811818E6420208E642C4
:202B8000048F828E83EAF0A3ECF0E58124F8F8901D1C740426F0E40836A3F008A3E6F0D0DF
:202BA00003022D10C003A881181876D508761B74012DFAE43EFB8F048A828B838CF0124B94
:202BC000C9FA7C0074F02CFCE58124F8F808A6021876008C027C00E58124F8F8E6420208BC
:202BE000E64204A88118188682088683EAF0A3ECF074022DFAE43EFB8F048A078B068C05DE
:202C00007BD57C1B74022BFBE43CFC7A00C0037402C0E0E4C0E0C007C006C0058B828C83D0
:202C20008AF0787A79477A001206D5E58124FBF581D003901D1CE0FAA3E0FBA3E0FC901DE6
:202C40001C74042AF0E43BA3F0A3ECF0D003022D10C003A881181876D508761B74012DFAE7
:202C6000E43EFB8F048A828B838CF0124BC9FAC4540FFC7B00E58124F8F874B02CF674F02C
:202C80003B08F6E58124F8F8E58124F6F9E609F7197700E58124F8F80886037C00E5812481
:202CA000F6F8E6420308E64204A88118188682088683EBF0A3ECF07BD57C1B8B828C83A355
:202CC000A3740F5AFC7B00A881181874B02CF674F03B08F6A8811818E58124FBF9E609F704
:202CE000197700A8811886037C00E58124FBF8E6420308E64204EBF0A3ECF0901D1C740289
:202D00002DF0E43EA3F0A3EFF0D0038003022E66EB7053901D1CE0FDA3E0FEA3E0FF7BD5CC
:202D20007C1B74062BFBE43CFC7A007402C0E0E4C0E0C005C006C0078B828C838AF0787A52
:202D400079477A001206D5E58124FBF581901D1CE0FDA3E0FEA3E0FF901D1C74022DF0E468
:202D60003EA3F0A3EFF0901BA8E0FF901BA874082FF0901BA3E0FDA3E0FEA3E0FF901D1CE9
:202D8000E0FAA3E0FBA3E0FCEAC39DFDEB9EFE901BA6EDF0E58124F0F8E6084670447EADDB
:202DA0007F1B8E828F83A3A3A3A3E4F07EAD7F1B74052EFEE43FFFC007C006783779857AB7
:202DC000011206D5AC82D006D007901BA6E0FDECC39DFC901BA8E02C24D8FD8E828F83F04A
:202DE00080367EAD7F1B74042EFEE43FFFE58124F0F8E624D808E634FFFC8E828F83F07E91
:202E0000AD7F1B74052EFEE43FFFE58124F0F8E624D8FD8E828F83F07EAD7F1B74062EF5DF
:202E200082E43FF583E0FFBF113C7EAD7F1B74042EFEE43FFF7D007BD57C1B74042BFBE419
:202E40003CFC7A007402C0E0E4C0E0C006C007C0058B828C838AF0787A79477A001206D525
:202E6000E58124FBF581E58124EFF5810206E7901BA3E0FDA3E0FEA3E0FF8D828E838FF0AC
:202E80007441123D7D901BA6E0901BA604F07BFD7C067A00901BA6E02DFDE43EFE7428C0F0
:202EA000E0E4C0E0C003C004C0028D828E838FF0787A79477A001206D5E58124FBF5819022
:202EC0001BA6E0FF901BA674282FF0901BA8E0FF901BA874282FF00206E7E58124FAF8E6B5
:202EE000C0E008E6C0E0E58124FAF8868208868378AE79A67A051206D515811581901EB8CC
:202F0000E0FDA3E0FEA3E0FFED4E604074062DFDE43EFE8D828E838FF0124BC9FDA3124B70
:202F2000C9FEA3124BC9FFC007C006C005C005C006C007E58124F6F88682088683D002D02B
:202F400001D0001206D5D005D006D007E58124FCF8901BA9E6F008A3E6F00206E7AD82AE3C
:202F600083AFF0C005C006C00775821978FD79867A011206D5158115811581907D3DE4936E
:202F8000FDA3E493FEA3E493FFC007C006C005E4C0E0C0E0C0E0C005C006C007902EDA758E
:202FA000F000D002D001D0001206D5158115811581D005D006D007786779867A051206D533
:202FC0000206E7E5812408F581AD82AE83AFF0901BA8E4F0901BA6F0C007C006C0057800C9
:202FE00079807A011206D5785779847A011206D5AA82AB83ACF0901BA3EAF0A3EBF0A3EC11
:20300000F07404C0E0E4C0E075820978C579867A011206D515811581D005D006D007901E24
:20302000B8E0FAA3E0FBA3E0FCEA4B6015C007C006C005782A790C7A001206D5D005D006CC
:20304000D0077BFD7C0674062BF582E43CF583E0FCBC064E7B257C07740D2BF582E43CF5A4
:2030600083E0FC20E03C7B257C07740D2BF582E43CF583E0FC53043FBC10028025C007C06B
:2030800006C0057402C0E0E4C0E075820E78C579867A011206D515811581D005D006D00774
:2030A000804A7BFD7C0674062BF582E43CF583E0FCBC06387B257C07740D2BF582E43CF567
:2030C00083E0FC530401BC0123C007C006C0057403C0E0E4C0E075820E78C579867A01129E
:2030E00006D515811581D005D006D007ED4E7023742BC0E0747DC0E07480C0E0901D1F75D4
:20310000F00078A979EE7A021206D5158115811581801BC005C006C007901D1F75F0007876
:20312000A979EE7A021206D5158115811581901D1F75F000785C79147A001206D5901BA808
:20314000E0FF900853E0FDA3E0FE7C00EDC39FFDEE9CFE901BA6E0FFFB7C007466C39BFB1D
:20316000E49CFCC3EB9DEC9E4003023586E58124F9F8A607087600901BA3E0FBA3E0FCA30D
:20318000E0FD8B028C068D0774042BFBE43CFCE58124F9F8E6C0E008E6C0E0C002C006C00E
:2031A000078B828C838DF07896793D7A001206D5E58124FBF581901BA3E0FDA3E0FEA3E01A
:2031C000FF900853E0FBA3E0FC4304C08C028D828E838FF0EA123D7DE58124FBF874012DA2
:2031E000F6E43E08F608A607E58124FBF886820886830886F0EB123D7DE58124FBF8740246
:203200002DF6E43E08F608A607901CFFE58124F9F8E0F6A3E008F6E58124F9F8088602E549
:203220008124FBF886820886830886F0EA123D7DE58124FBF874032DF6E43E08F608A607BD
:20324000E58124F9F88603E58124FBF886820886830886F0EB123D7DE58124F9F8901CFF79
:20326000740126F0E40836A3F0901BA6E0FC901BA674042CF0901BA6E58124F9F8E0F6E575
:203280008124F9F87466C39654F8FB901BA7F0E58124FBF8A603087600901BA8E024FDFAEA
:2032A000E43406FB7C00E58124F9F8E62DFDE43EFEE58124FBF8E6C0E008E6C0E0C002C0BB
:2032C00003C0048D828E838FF0787A79477A001206D5E58124FBF581901BA7E0FF7E009035
:2032E0001BA6E07C002FFFEC3EFE8F828E83784979847A011206D5786979BC7A041206D592
:20330000AD82AE83AFF0ED4E7005F58202363C901D1F75F000C007C006C005785D792F7A99
:20332000001206D5D005D006D0078D828E838FF0C007C006C00578AE79BF7A041206D5D094
:2033400005D006D0078D828E838FF078C279BE7A041206D5901BA9E0FBA3E0FCBB0105BC15
:203360000002800EBB0405BC00028006BB0509BC000675820002363C901BA7E0FF7E009080
:203380001BA8E07C002FFAEC3EFC901D27EAF0A3ECF0901BA67405F0901BA3E0FFA3E0FE2A
:2033A000A3E0FD900853E0FBA3E0FC4304E08C028F828E838DF0EA123D7D0FBF00010E7CE5
:2033C000008F828E838DF0EB123D7D901BA77460F0901D27E0FFA3E0FE900853E58124FBDD
:2033E000F8E0F6A3E008F6E58124FBF8C3EF96EE08964003023639901BA3E0FAA3E0FBA330
:20340000E0FCA881181874042AF6E43B08F608A6048F03EEC423CBC423541F6BCB541FCB10
:203420006BCBA881181886820886830886F0EB123D7DE58124FBF8E6C39FFD08E69EFB90D6
:203440001BA7E0FA7C00C3ED9AEB9C5010E58124FBF886048F03901BA7ECC39BF0901BA7AC
:20346000E0FF7E00901D27E0FAA3E0FCEA24FDFAEC3406FC7B00E58124FBF8A60208A60449
:2034800008A603901BA6E0FD901BA3E0FAA3E0FBA3E0FCED2AFAE43BFBC007C006E58124E6
:2034A000F9F8E6C0E008E6C0E008E6C0E08A828B838CF0787A79477A001206D5E58124FB45
:2034C000F581901BA7E0FF7E00901BA6E07C002FFAEC3EFC8A828C83784979847A0112065F
:2034E000D5786979BC7A041206D5AA82AB83ACF08A058B068C07ED4E7005F58202363C90A2
:203500001D1F75F000C007C006C005785D792F7A001206D5D005D006D0078D828E838FF0B3
:20352000C007C006C00578AE79BF7A041206D5D005D006D0078D828E838FF078C279BE7A64
:20354000041206D5901BA7E0FF901D27E0FDA3E0FE7C00901D27EF2DF0EC3EA3F0901BA9AA
:20356000E0FEA3E0FFBE0105BF00028013BE0405BF0002800BBE0505BF000280030233D1AE
:2035800075820002363C783E790D7A001206D5901BA8E0FF900853E0FDA3E0FE8F037C0094
:2035A000E58124FBF8EDC39BF6EE9C08F6EF24FDFFE43406FC7B00901BA6A8811818E0F6A1
:2035C000901BA3E0FAA3E0FDA3E0FEA8811818E62AFAE43DFDE58124FBF8E6C0E008E6C090
:2035E000E0C007C004C0038A828D838EF0787A79477A001206D5E58124FBF581901BA8E0BC
:20360000FF900853E0FDA3E0FE7C00EDC39FFDEE9CFE901BA6E07C002DFDEC3EFE8D828E76
:2036200083784979847A011206D5901D1F75F000785D792F7A001206D5758201E58124F852
:20364000F5810206E7E581240CF58124F5F8E4F608F6E58124FDF87600901D29E4F0A3F0DE
:20366000901D2BF0901D2CF0901BA8F0901BA6E4F0785779847A011206D5AA82AB83ACF027
:20368000901BA3EAF0A3EBF0A3ECF0901D0B75F000780E79927A051206D5E5828583F04547
:2036A000F0600E901BABE4F0A3F0901CFDF0A3E4F0901BA3E0FAA3E0FBA3E0FC8A828B83A0
:2036C0008CF0124BC9FF7D00E58124F7F8A60508A60774012AFDE43BFE8C078D828E838FF8
:2036E000F0124BC9FDE58124F9F8A605087600E58124F7F8E58124F9F9E74609E70846FFB4
:203700005307F88F067F00BEC005BF0002800CBEE006BF000302379902384BE58124FDF837
:203720007600E58124F7F8E58124F9F9E746FE09E70846FFE58124F5F8A60674075F08F6BB
:2037400074022AFDE43BFE8C078D828E838FF0124BC9FF7D00E58124FBF8A60508A607748A
:20376000032AFDE43BFE8C078D828E838FF0124BC9FD7F00E58124FBF8901D29ED46F0EFC9
:203780000846A3F0901BA6E0FF901BA674042FF0901D2B7401F002384B74042AFDE43BFEB2
:2037A0008C078D828E838FF0124BC9FDE58124FDF8A60574022AFDE43BFE8C078D828E831D
:2037C0008FF0124BC9FF7D0074032AFAE43BFB8A828B838CF0124BC9FA7E00901D29EA4DD2
:2037E000F0EE4FA3F0E58124F7F8E58124F9F9E746FE09E70846FFE58124F5F8A60674070E
:203800005F08F6901BA6E0FF901BA674052FF0783779857A011206D5AE82AF83901CFDE032
:20382000FCA3E0FDEE2CFEEF3DFF901BA6E0FD7C00EEC39DFEEF9CFFE58124F5F8C3EE968B
:20384000EF08964006901D2C7401F0901CFDE0FEA3E0FF4E70030238DAE58124F5F8E60814
:20386000466067901BABE0FEA3E0FFE58124F5F8E6B5060708E6B507028002805A901D01B0
:20388000E0FEA3E0FF901D29E0FCA3E0FDEEB50446EFB50542758218783979877A0112066B
:2038A000D5AD82AE83AFF0C005C006C007901D0375F000780379EF7A021206D5AE82AF831F
:2038C000158115811581EE4F600DE58124F5F8E608466003023958023C09E58124F5F8E637
:2038E00008466074E58124F5F8C3744F96740108964065E58124F5F8901BABE6F008A3E627
:20390000F0901D29E0FEA3E0FF901D01EEF0A3EFF07440C0E0E4C0E0901D0B75F000784FB7
:2039200079917A051206D515811581758218783979877A011206D5AD82AE83AFF0C005C039
:2039400006C007901D0375F00078A979EE7A021206D5158115811581901BA6E0FFBF0503DB
:20396000023A10783E790D7A001206D5901BA6E58124FBF8E0F6901BA3E0FCA3E0FDA3E087
:20398000FEE58124FBF8E62CFAE43DFB8E078A828B838FF0124BC9FF74E05FFBBB6015E56E
:2039A0008124F5F88682088683784879237A001206D5805CBF4156E58124FBF8901BA6E6B3
:2039C00004F0901BA6E02CFCE43DFD7BAD7F1B7A007428C0E0E4C0E0C004C005C0068B8224
:2039E0008F838AF0787A79477A001206D5E58124FBF581901BA6E0FF901BA674282FF0905B
:203A00001BA8E0FF901BA874282FF08003023C09783779857A011206D5AE82AF83901BA664
:203A2000E0FD7C00C3EE9DEF9C5003023C09783779857A011206D5AE82901BA6E0FFEEC394
:203A40009FFE901BA7F0E58124FBF8A606087600901BA3E0FAA3E0FBA3E0FCEF2AFAE43B89
:203A6000FB901BA8E0FFA8811818EF24ADF6E4341B08F6087600E58124FDF88606E4035415
:203A8000F8CEC403CE6ECE54F8CE6EFFA8811818EE26FEEF0836FF088605E58124FBF8E67B
:203AA000C0E008E6C0E0C002C003C0048E828F838DF0787A79477A001206D5E58124FBF55D
:203AC0008124F5F8E608466052901D2BE0FF6019901BA8E0FF901CFDE0FDA3E0FE7C0090F9
:203AE0001CFDEF2DF0EC3EA3F0901D2CE0FF6010E58124F5F8901CFDE6F008A3E6F080368F
:203B0000901BA7E0FF901CFDE0FDA3E0FE7C00901CFDEF2DF0EC3EA3F0801B901BA7E0FFB3
:203B20007E00901BA8E0FD7C002FFFEC3EFE901BABEFF0A3EEF0901CFDE0FEA3E0FF4E6098
:203B400015901BABE0FCA3E0FDEEB50406EFB505028003023C09901BABE0C0E0A3E0C0E083
:203B600074ADC0E0741BC0E0E4C0E09006FD75F000787A79477A001206D5E58124FBF581C5
:203B8000901BABE0FEA3E0FF900853EEF0A3EFF0901BABE4F0A3F0901CFDF0A3E4F0786C73
:203BA00079A77A051206D5901EB8E0FDA3E0FEA3E0FFED4E604A782A790C7A001206D59030
:203BC0001EB8E0FDA3E0FEA3E0FF74032DFDE43EFE8D828E838FF0124BC9FDA3124BC9FEE5
:203BE000A3124BC9FFC007C006C005C005C006C007D002D001D0001206D5D005D006D00777
:203C00007811798E7A041206D5E58124F4F5810206E7902FC375F000780D798A7A041206C1
:203C2000D5901D0F7401F0901D10E4F0901D1174AAF0901D1274AAF00206E7758120125AF3
:203C400078E582600302006E7937E94401601B7A02907EC6789975931DE493F2A308B80007
:203C6000020593D9F4DAF27593FFE478FFF6D8FD7800E84400600A7900759300E4F309D89D
:203C8000FC7895E8441D600C791E900000E4F0A3D8FCD9FA900243E4F0A3F0A3F09005C8F5
:203CA000E4F0900650E4F0E4F50FF510E4F511F512900000E4F0A3F0A3F0A3F09019E4E40A
:203CC000F0A3F0A3F0A3F0901ABDE4F0A3F0901ABFE4F0A3F0901AC1E4F0A3F002006EC09B
:203CE00013858113C082C083C0F0058105810581E51324FAF88602088603088604A8130855
:203D0000E5132404F9E6F70809E6F70809E6F78A828B838CF0124BC9FFA3AA82AB83E51321
:203D20002404F886820886830886F0EF123D7DA31818A68208A683EF70D5A81308868208DE
:203D400086830886F0851381D0130206E7FFA8811818124331D2D133E6400730E70B7582F7
:203D6000012220E70675820022C2D1124313E97003F5822230D101B3E433F5822220F7107E
:203D800030F6118883A88220F507F6A88375830022F280F7F022C013E581F513240BF581FF
:203DA000AD82AE83AFF0A81308A60508A60608A607E51324FAF88603088604E5132404F8EC
:203DC000A60508A606E5132404F8C3EB96EC64800886F063F08095F04003023EB1C005C0C9
:203DE00006C007E51324F8F8E62BFB08E63CFCE5132404F88602088607C3EA9BEF9CD007D9
:203E0000D006D0054003023EB18D028E038F04E51324F8F8E62AFA08E63BFBEA24FFFFEBDF
:203E200034FFFE8C05E51324FAF88602088603088604E51324F8F8E62AFA08E63BFB1ABAF9
:203E4000FF011BE5132409F8A60208A60308A604E5132406F8A60708A60608A605E51324D5
:203E6000F8F886070886068F038E041FBFFF011EEB4C7003023F18E5132409F8868208865B
:203E8000830886F0124BC9FCE5132409F816B6FF020816E5132406F886820886830886F046
:203EA000EC123D7DE5132406F816B6FF02081680B6E51324FAF8E5132406F9E6F70809E612
:203EC000F70809E6F7E51324F8F8E5132409F9E6F70809E6F7E5132409F88603088604E5EB
:203EE000132409F816B6FF020816EB4C602AE5132406F886820886830886F0124BC9FCA368
:203F00001818A68208A6838D828E838FF0EC123D7DA3AD82AE8380BDA813088682088683A5
:203F20000886F0851381D0130206E7FFA8811818124331D2D133E6400730E70B75820022FC
:203F400020E70675820122C2D1124313E97003F5822220D101B3E433F582227E567F109002
:203F60007BACE493FC740193FDEE4F700A0EBE00010F1CBCFF011D8E028F03901E32EAF03E
:203F8000A3EBF0EC2EFEED3FFFEE24FEFEEF34FFFF8A828B83EEF0A3EFF08E828F83E4F0C1
:203FA000A3F08A828B83A3A3E4F0A3F00206E7C013858113C082C08305810581A81308C3B5
:203FC00074FB9674FF08965006900000024100A81308740426F6E40836F6901E32E0FCA3D4
:203FE000E0FD4C7009785B793F7A001206D5901E32E0FCA3E0FDE5132403F8A60408A6057D
:20400000D310AF01C3C0D0E5132403F88682088683E0FAA3E0FB8A068B07E5132403F88673
:2040200004088605EEC39CFEEF9DFFE5132403F88682088683A3A3E0FCA3E0FDEEC39CFEF6
:20404000EF9DFFA81308C3EE96EF0896400FE5132403F8740426FEE40836FF801EE5132461
:2040600003F8A60208A603E5132403F88682088683E0FCA3E0FD4C708EFEFFEE4F6079E51E
:20408000132403F8740226FCE40836FD8C828D83E0FAA3E0FB4A700F8C828D83A81308E631
:2040A000F0A308E6F08051E5132403F88604088605EA2CFAEB3DFBE5132403F886820886AA
:2040C00083E0FCA3E0FD8A828B83ECF0A3EDF0E5132403F88682088683EAF0A3EBF08A82F7
:2040E0008B83A3A3A81308E6F0A308E6F074042AFAE43BFB8A068B07D0D092AF8E828F8377
:20410000851381D0130206E7C013858113C082C083E5812408F581AF130FE5132403F8A6AD
:2041200007087600087640E51324FCFCE5132406F8A604087600087640E5132409F9E51312
:204140002403F886820886830886F0124BC9FCE5132406F886820886830886F0124BC9FBB5
:204160008CF0A4FAAFF0A70209A707E513240904F98707E5132406F8740126FAE40836FDA8
:204180000886068A828D838EF0124BC98CF0A4FCE5132403F8740126FAE40836FD08860650
:2041A0008A828D838EF0124BC9FA8AF0EBA42C2FF7E5132409F987060987078E828F838501
:2041C0001381D01322C013E581F5132406F581AD82AE83AFF0E51324F8F8E6084670069020
:2041E00000000242B2E51324F8F886030886041BBBFF011CEB4C7003024282C003C004A811
:204200001308A60508A60608A607A8130886820886830886F0124BC9FAE51324FAF8E513EF
:204220002404F9E6F70809E6F70809E6F7E5132404F886820886830886F0124BC9FCEAB534
:2042400004028006D004D0038038A81308740126FAE40836FB0886048A058B068C07E513C1
:204260002404F8740126FAE40836FB088604E51324FAF8A60208A60308A604D004D0030218
:2042800041EF8D828E838FF0124BC9FD7F00E51324FAF886030886040886068B828C838E46
:2042A000F0124BC9FB7E00EDC39BFDEF9EFF8D828F83851381D0130206E7124FFD7900E5D3
:2042C00083B58202800D50031249B1E583C3958212502BE5D0C465D020E117EA2DFAEB3E67
:2042E000FBEC3FFC5009740112502BEC4480FC02480FC3EA9DFAEB9EFBEC9FFC500FC3E4E7
:2043000099F9E49AFAE49BFBE49CFCB2D112506E02480F7901AA82E68F82B5821318E6B557
:20432000F00E18E6B5830918E68A82B58202790022B4800FE5F0700AE5837006E582700219
:204340007F00EFB6801518B6001018B6000B18B6000608080876002208080822C013858156
:2043600013AC82AD83AEF0FF05817B00A813087600E51324FAF8080808E6235401FA704DBA
:20438000E51324FAF8E625E0F608E633F608E633F608E633F6E51324FAF8C3EC96ED08960B
:2043A000EE0896EF0896501AE51324FAF8080808E6C313F618E613F618E613F618E613F68D
:2043C000800BA8130806A81308860380A4E51324FAF8C3EC96ED0896EE0896EF08964015CD
:2043E000E51324FAF8ECC396FCED0896FDEE0896FEEF0896FFE51324FAF8080808E6C313EE
:20440000F618E613F618E613F618E613F68B021BEA70BA8C828D838EF0EF1581D01322C0EF
:2044200013858113C082058105810581E51324FAF8A9130909E6F70809E6F70809E6F7A83F
:2044400013080886820886830886F0124BC9FAA3124BC9FBA3124BC9FF74012AFCE43BFD3F
:204460008F06A813080886820886830886F0EC123D7DA3ED123D7DA3EE123D7D8A828B83BA
:204480008FF0A81308E6123D7D851381D0130206E7C013858113C082C083C0F0AF130F7ECD
:2044A000007D40E51324F9F8E6C0E0E51324FAF8E6C0E008E6C0E008E6C0E0C007C006C0AF
:2044C0000590441F75F00078DA79677A001206D5AE82AF83E58124F9F581A8130886030837
:2044E00086040886058B828C838DF0E4123D7D8E828F83851381D0130206E7C0138581135D
:20450000E51324F7FFE51324FAFE7D007C40C007E51324F7F8E6C0E008E6C0E008E6C0E0C8
:20452000C006C005C00490441F75F00078DA79677A001206D5AE82AF83E58124F9F581E5FB
:204540001324FAF886030886040886058B828C838DF0E4123D7D8E828F83D0130206E7C087
:2045600013858113058105810581AD82AE83AFF0E51324F8F8E60846700690000002461FD1
:20458000E51324FAF88602088603088604E51324F8F8A91309E6F70809E6F7A8130816B637
:2045A000FF020816A81308E60846604C8D828E838FF0E5132403F8124BC9F6E5132403F850
:2045C000E66035C005C006C0078A828B838CF0124BC9FFE5132403F8E6B507028008D00739
:2045E000D006D0058012D007D006D0050DBD00010E0ABA00A60B80A38D828E838FF0124B8F
:20460000C9FD3395E0FF8A828B838CF0124BC9FA3395E0FEEDC39AFDEF9EFF8D828F838558
:204620001381D0130206E7AC83AB827A007900748E024DCA125097700AE582458345F07063
:204640000122E430D112F4700BE5F0F47006E58330E7012290800022700AE5F07006E58391
:2046600020E70122907FFF22C013858113C082C083C0F0C0E07A007B007E007F007D20A8E8
:204680001308080808E6235401FC24FF9200A81308E625E0F608E633F608E633F608E633E5
:2046A000F6EA2AFAEB33FBEE33FEEF33FF300003430201E51324FAF8C3EA96EB0896EE0854
:2046C00096EF0896401CE51324FAF8EAC396FAEB0896FBEE0896FEEF0896FFA81308E64489
:2046E00001F6DD9BA8130886820886830886F008E6851381D01322AF82BF4100400AEF2457
:20470000A5400575820180037582000206E7C013858113C082C083C0F005810581A813085E
:204720008602088603088604E51324FAF8E5132404F9E6F70809E6F7E5132404F886060830
:204740008607E5132404F816B6FF020816EE4F60168A828B838CF0E51324FCF8E6123D7DBE
:20476000A3AA82AB8380D1A8130886820886830886F0851381D0130206E7C013E581F51365
:204780002408F581AD82AE83AFF0A81308A60508A60608A607E51324FAF8E5132404F9E694
:2047A000F70809E6F70809E6F7E51324F8F8E5132407F9E6F70809E6F7E5132407F886038F
:2047C000088604E5132407F816B6FF020816EB4C602AE5132404F886820886830886F012BF
:2047E0004BC9FCA31818A68208A6838D828E838FF0EC123D7DA3AD82AE8380BDA81308869D
:20480000820886830886F0851381D0130206E7B98003EA13B34010EA2401FAE43BFBE43C1D
:20482000FC50047C800582BC000EBB000BBA0008E4F5F0F583F58222A2D1E582138CF0927E
:20484000F78B838A8222E4F583F58275F080F4A2D11322E4F583F58275F0C0747F22C013F1
:20486000E581F5132409F581AD82AE83AFF0E5132404F8A60508A60608A607E51324F8F8F0
:204880008603088604E51324FAF8E5132407F9E6F70809E6F70809E6F7EB4C6034E5132433
:2048A00007F886820886830886F0124BC9FA60211BBBFF011CE5132407F806B600020806E8
:2048C0008D828E838FF0EA123D7DA3AD82AE8380C8A81308A60508A60608A6078B028C0741
:2048E0001BBBFF011CEA4F6019A8130886820886830886F0E4123D7DA31818A68208A683DE
:2049000080DAE5132404F886820886830886F0851381D0130206E7C013858113783379D6BD
:204920007A031206D5D0130206E7C013858113AD82AE83AFF0E51324FCF8E6C0E0C005C035
:2049400006C007E4C0E0C0E0C0E090491775F00078DA79677A001206D5AE82AF83E58124EC
:20496000F9F5818E828F83D0130206E7C013858113E51324FAFFC007E51324FAF8E6C0E078
:2049800008E6C0E008E6C0E0E4C0E0C0E0C0E090491775F00078DA79677A001206D5AE8219
:2049A000AF83E58124F9F5818E828F83D0130206E7E582C583F582A2D133A2D592D113928D
:2049C000D5ECCFFCEBCEFBEACDFA22C013858113AD82AE83AFF08D828E838FF0124BC9FC18
:2049E0006012E51324FCF8E6B5040280070DBD00E50E80E28D828E838FF0124BC9FCE51335
:204A000024FCF8E6B504088D828E838FF0800690000075F000D0130206E7AA82AB83124B34
:204A2000C96003A380F8C3E5829AF582E5839BF5830206E7C013858113C082C083C0F00564
:204A4000810581E51324FAF88602088603088604A8130886050886060886078D828E838F70
:204A6000F0124BC9FDE5132404F8A6050876008A058B068C078D828E838FF0124BC9FD7FEE
:204A800000E5132404F8E6C39DFD08E69FFFE5132404F8A60508A607ED4F701B8A828B83D6
:204AA0008CF0124BC96010A8130806B6000208060ABA009C0B8099E5132404F88682088623
:204AC00083851381D0130206E7125097700AE582458345F0700122E430D117F47010E5F0B9
:204AE000F4700BE583F47006E58230E7012275828022700EE5F0700AE5837006E58220E722
:204B0000012275827F22124FFD30D502B2D1BF0009BC0003024853024846BC000302483005
:204B2000E583B4FF0BE582B4FF03024853024830E582B4FF03024846C395835007247F4059
:204B40000B0248302480145003024846F582C3ED9AEE9BEF9C40111582C3EA33F9EB33FA87
:204B6000EC33FBE433FC8005E4CCCBCAF9C08275F019C3E99DEA9EEB9FEC9400D5F0028063
:204B80002D400EE99DF9EA9EFAEB9FFBEC9400FCC3B3E833F8E58233F582E58333F583C328
:204BA000E933F9EA33FAEB33FBEC33FC80C4B3E4F938FAE43582FBE43583FCD082500405B6
:204BC000827C8012506E02482720F71430F6148883A88220F507E6A88375830022E280F7DC
:204BE000E49322E022C013858113C082C083C0F0C0E0E5812408F581E5132405F92402F819
:204C0000AF130F8F06C000A8068606E51324FAFDFC0C0CA8048604D0008EF0ECA4FEABF060
:204C2000A60608A6038F068E0086068D048C0086048EF0ECA4FEABF0A70609A703E513249E
:204C4000052403F987068F0474032CF886048D038B0086038CF0EBA42EF787068F04740280
:204C60002CF886048D03EB04F886038CF0EBA42EF7E51324052402F98704098706198F034A
:204C800074022BF886038D028A0086028BF0EAA4ABF02CFCEB3EFEA70409A7061987040950
:204CA0008706198F03EB04F886038D02EA04F886028BF0EAA4ABF02CFCEB3EFEA70409A701
:204CC000068F0674032EF98F06EE04F886068D0474022CF886048EF0ECA4F78F06EE04F956
:204CE0008F06EE04F886068D048C0086048EF0ECA4FEABF0A70609A7038D0674032EF98F3B
:204D0000068E0086068D0474032CF886048EF0ECA4F78D06EE04F98F068E0086068D04EC0E
:204D200004F886048EF0ECA4FEABF0A70609A7038D0177008F017700E5132405F9E51324A4
:204D400009F8E7F609E708F609E708F609E708F6191919A813088602088603088606088662
:204D600007E5132409F8EA26F6EB0836F6EE0836F6EF0836F6E5132409F8E6F70908E6F7BD
:204D80000908E6F70908E6F7191919E709E709E709E7E51324FAF88604088605088606086E
:204DA0008607E5132409F8EC26FCED0836FDEE0836FEEF08368C828D838EF0851381D01324
:204DC00022FCABF0AA83A982749EF582C2D1EC30E716D2D1E9F42401F9EAF43400FAEBF404
:204DE0003400FBECF43400FC12506E02480FC013858113AE82AF837D007C00E51324FCF8F4
:204E000008E6235401FB7032E51324FCF808E618C625E0C63308F6E51324FCF8C3EE96EF71
:204E200008965011E51324FCF808E618C313C613C608F680050C8C0580C1E51324FCF8C3B4
:204E4000EE96EF0896400DE51324FCF8EEC396FEEF0896FFE51324FCF808E618C313C6134E
:204E6000C608F68D041DEC70D18E828F83D01322C01385811305810581AE82AF83E51324F6
:204E8000FCF808E633E433FD600FE51324FCF8C3E496FB08E496FC800AE51324FCF8860391
:204EA000088604EF33E433FA600DA81308C3E49EF6E49F08F68008A81308A60608A607A8ED
:204EC00013088606088607C005C002C003C0048E828F83124F08AE82AF8315811581D0029D
:204EE000D005ED6A600DC3E49EFCE49FFD8C828D8380048E828F83851381D01322A8811835
:204F000018C6B2E7C60242BAC013858113AE82AF837C007D007B10EF235401FA24FF92006E
:204F2000EFCE25E0CE33FFEDCC25E0CC33FD300003430401E51324FCF8C3EC96ED0896405A
:204F400010E51324FCF8ECC396FCED0896FD430601DBC48E828F83D01322124FFDBC00033B
:204F6000024830EF60FA30D502B2D1E583B4FF03024846E582B4FF03024846258340072476
:204F800082400B0248302483145003024846F582EA8DF0A4A8F0EA8EF0A428F8E435F0F9E4
:204FA000EB8DF0A428E935F0F9E433CA8FF0A429F9EA35F0FAEBF88EF0A429F9EA35F0FA57
:204FC000E433FBEC8DF0A429F9EA35F0FAE43BFBE88FF0A42AFAEB35F0FBE433CCFD8EF0D5
:204FE000A42AFAEB35F0FBE43CFCED8FF0A42BFBEC35F0FC20E70312506E02480FAA82AB75
:2050000083A2F73392D16002D2F7F582ACF0E58124F9F8E6FD08E6FE0886F008E6A2F7331E
:2050200092D56002D2F7F583AFF0226040F82582500274FFF582E824F8501ECCCBCAF9E47A
:20504000CC24F85014CBCAF9E4CB24F8500BCAF9E4CA24F8500379002224086010F8C3EC92
:2050600013FCEB13FBEA13FAE913F9D8F1227804EC700DC9CACBFCE58224F8F582D8F1222D
:20508000782020E7111582C3E933F9EA33FAEB33FBEC33FCD8EC22125A7CC3749E958240AC
:2050A00039790012502B30D126E9F42401F582EAF43400F583EBF43400F5F0ECF43400700B
:2050C0000AE582458345F0700122E430E70F22EC20E71489828A838BF02230D10AE4F58281
:2050E000F583F5F074802274FFF582F583F5F0747F227582000206E7C013858113C082C00D
:2051000083C0F0E5812410F581E5132410F874FFF608F608F608F6E5132404FD7E007F406B
:205120008D828E838FF078F279507A001206D5E582602FE5132404FF7E007D408F828E83C4
:205140008DF0785079577A001206D5AC82AD83AEF0FFE5132410F8A60408A60508A606089B
:20516000A607A81308E608466026A8130886820886830886F0E5132410F9E7123D7DA30927
:20518000E7123D7DA309E7123D7DA309E7123D7DE5132410F886820886830886F008E68570
:2051A0001381D0130206E7AD82AE83AFF0124BC9FC24C4500B8D828E838FF0743B123D7D0B
:2051C00074012DFAE43EFB8F048A828B838CF0124BC9F924C4500B8A828B838CF0743B1234
:2051E0003D7D74022DFAE43EFB8F048A828B838CF0124BC9F924E8500B8A828B838CF07482
:2052000017123D7D74072DFAE43EFB8F048A828B838CF0124BC9F924F9500B8A828B838C86
:20522000F07406123D7D74032DFAE43EFB8F048A828B838CF0124BC9F9B90100500D8A8212
:205240008B838CF07401123D7D8010E924E0500B8A828B838CF0741F123D7D74042DFAE433
:205260003EFB8F048A828B838CF0124BC9F924F4500B8A828B838CF0740B123D7D74052DB3
:20528000FDE43EFE8D828E838FF0124BC9FBA3124BC9FC30E70F8D828E838FF0E4123D7DF7
:2052A000A3E4123D7D0206E7C013858113C082C083C0F0E581240CF581A813088682088626
:2052C000830886F078A779517A001206D5A81308740526FAE40836FB0886048A828B838CCC
:2052E000F0124BC9FAA3124BC9FB746C2AFF74073BFEA8130886820886830886F0124BC99D
:20530000FCE5132404F8A604087600A81308740126FDE40836FC0886038D828C838BF0129C
:205320004BC9FDE5132406F8A605087600A81308740226FBE40836FC0886058B828C838D65
:20534000F0124BC9FBE5132409F8A603087600A81308740326FAE40836FC0886058A828C55
:20536000838DF0124BC9FAE513240BF8A602087600A81308740426FBE40836FC0886058B30
:20538000828C838DF0124BC925E0FC907E2F93CCA393FDE513240DF8A60408A6050876808D
:2053A000A81308740726FAE40836FC0886058A828C838DF0124BC925E0FC907E4793CCA3C8
:2053C00093FD7B80C007C006E5132404F8E6C0E008E6C0E0E5132406F8E6C0E008E6C0E05B
:2053E000E5132409F8E6C0E008E6C0E0E513240BF8E6C0E008E6C0E0E513240DF8E6C0E0A2
:2054000008E6C0E008E6C0E0C004C005C0037455C0E0747EC0E07480C0E0742DC0E0741DC3
:20542000C0E0E4C0E078FB79447A001206D5E58124EAF581901D2D75F000851381D013028A
:2054400006E7785D79547A001206D578A879527A001206D5AD82AE83AFF00206E7786F79B6
:20546000547A001206D5AD82AE83AFF00206E7C013E581F513240CF581124BC9FDA3124B79
:20548000C9FEA3124BC9FFA3124BC9FCA81308A60508A60608A60708A604743CC0E0E4C03B
:2054A000E0C0E0C0E0A8130886820886830886F008E612435CAA82E58124FCF581901D4DB1
:2054C000EAF0743CC0E0E4C0E0C0E0C0E0A8130886820886830886F008E6124668AC82ADFB
:2054E00083AEF0FFE58124FCF581A81308A60408A60508A60608A607743CC0E0E4C0E0C073
:20550000E0C0E0A8130886820886830886F008E612435CAC82E58124FCF581901D4EECF011
:20552000743CC0E0E4C0E0C0E0C0E0A8130886820886830886F008E6124668AC82AD83AE43
:20554000F0FFE58124FCF581A81308A60408A60508A60608A6077418C0E0E4C0E0C0E0C0C7
:20556000E0A8130886820886830886F008E612435CAC82E58124FCF581901D4FECF07418C4
:20558000C0E0E4C0E0C0E0C0E0A8130886820886830886F008E6124668AC82AD83AEF0FFA4
:2055A000E58124FCF581A81308A60408A60508A60608A607A81308740426FCE40836FDE406
:2055C0000836FEE40836FF7407C0E0E4C0E0C0E0C0E08C828D838EF0EF12435CAC82AD83F5
:2055E000AEF0FFE58124FCF581901D54ECF0E5132405F8E4F608F608F608F67AB27B077426
:20560000035AFE7F004FB40100E433FE60067E6E7F0180047E6D7F01EF3395E0FDFCE5134E
:205620002405F8EE26FEEF0836FFED0836FDEC0836FCE5132405F8A60608A60708A6050888
:20564000A604A81308C3E69E08E69F08E69D08E69C40070ABA00A80B80A5EA2494FEEB3452
:20566000F8FF901D52EEF0A3EFF074035AFE7F004FB40100E433FD60067C6E7D0180047CA0
:205680006D7D01ED3395E0FBFAE5132405F8E6C39CF608E69DF608E69BF608E69AF6A81308
:2056A00008E5132405F9E6C397F608E60997F608E60997F608E60997F6A81308860408862B
:2056C00005901D55ECF0A3EDF07D00BD0C00505DBD010CEE4F70047C1D800B7C1C8007EDC9
:2056E000907E2393FBFCE5132409F8A604087600087600087600A81308E5132409F9C3E624
:205700009708E6099708E6099708E60997401EA81308E5132409F9E6C397F608E60997F64F
:2057200008E60997F608E60997F60D809E901D51EDF0A8130886050D901D50EDF0901D5722
:20574000E4F0901D4D75F000851381D0130206E7C013858113C082C083C0F0E581240AF581
:2057600081A81308740526FAE40836FB0886048A828B838CF0124BC9FAA3124BC9FBE5132B
:205780002404F8746C2AF674073B08F6A81308740426FAE40836FB0886048A828B838CF095
:2057A000124BC9FAE5132406F8A602087600A8130886820886830886F078A779517A0012BA
:2057C00006D5E5132404F8E6244EFB08E634F8FA3395E0FCFFC003C002C004C00790338079
:2057E00075F0E17401124BE5AC82AD83AEF0FFE58124FCF581E513240AF8A60408A6050832
:20580000A60608A607E513240AF88602088603088606088607E5132408F876B2087607E519
:20582000132408F8E5132404F9C3E69708E664800987F063F08095F0504CC007C006C00342
:20584000C0027404C0E0E4C0E0E5132408F88682088683127746AC82AD8315811581D0028A
:20586000D003D006D007EC4D700F74802AFA74513BFB74013EFEE43FFFE5132408F806B632
:20588000000208068099E513240AF8A60208A60308A60608A6077404C0E0E4C0E0E5132447
:2058A00004F88682088683127746AE82AF83158115817C007D00E5132406F8C3EC96ED64CD
:2058C000800886F063F08095F0400302594FBC0120BD001DEE4F7019E513240AF8748026D0
:2058E000F6743B0836F674260836F6E40836F68056C006C007EC2423F582ED347EF583E4E1
:2059000093FA3395E0FBFEFFC005C004C002C003C006C00790518075F001E4124BE5AA82A6
:20592000AB83AEF0FFE58124FCF581D004D005E513240AF8EA26F6EB0836F6EE0836F6EFA3
:205940000836F6D007D0060CBC00010D0258B6A81308740326FDE40836FE0886078D828ED1
:20596000838FF0124BC9FD7F001DBDFF011FEF3395E0FEFCC005C007C006C004905180750D
:20598000F001E4124BE5AC82AD83AEF0FFE58124FCF581E513240AF8EC26F6ED0836F6EEC4
:2059A0000836F6EF0836F6A81308740226FDE40836FE0886078D828E838FF0124BC9FD7F3E
:2059C000007E007C00C005C007C006C004900E10E4F5F0124BE5AC82AD83AEF0FFE5812479
:2059E000FCF581E513240AF8EC26F6ED0836F6EE0836F6EF0836F6A81308740126FDE40862
:205A000036FE0886078D828E838FF0124BC975F03CA4FDE5F0FF3395E0FEFCE513240AF822
:205A2000ED26F6EF0836F6EE0836F6EC0836F6A8130886820886830886F0124BC9FFE4FE97
:205A40003395E0FDFCE513240AF8EF26F6EE0836F6ED0836F6EC0836F6E513240AF8860471
:205A60000886050886060886078C828D838EF0EF851381D0130206E775820022AA82AB8381
:205A8000A2F73392D16002D2F7F582ACF022C013858113AF8274302FFF24C6500B74072F99
:205AA000FF30000474202FFFE51324F7F8E6C0E008E6C0E008E6C0E0E51324FAF8E6C0E0B0
:205AC00008E6C0E008E6C0E08F82D002D001D0001206D5158115811581D0130206E7C013D2
:205AE000858113E582FFC4540FFEC007C020E51324F7F8E6C0E008E6C0E008E6C0E0E513B6
:205B000024FAF8E6C0E008E6C0E008E6C0E0A20092F085F0208E82788E795A7A001206D5C4
:205B2000E58124FAF581D020D00753070FE51324F7F8E6C0E008E6C0E008E6C0E0E5132472
:205B4000FAF8E6C0E008E6C0E008E6C0E0A20092F085F0208F82788E795A7A001206D5E5C2
:205B60008124FAF581D0130206E7C0138581130581A9828704098705098706098707191922
:205B800019740429F8C000A813087620D000C001E626FAEF2354014202A602EC2CFCED331C
:205BA000FDEE33FEEF33FF8603C000E51324FCF8C3EA96D000D0014012C000E51324FCF849
:205BC000EBC396FBD000A603430401C000A8130816E6D000600280B6A70409A70509A706C8
:205BE00009A7071581D0130206E7C013858113C082C083C0F0C0E0E5812421F581E5132488
:205C000005F87600C204E5132425F87680C020E4C0E0C0E0C0E0C0E0A813088682088683FC
:205C20000886F008E6123F2BAF82E58124FCF581D020EF6012D204A81308E6F608E6F6089D
:205C4000E6F608E6B2E7F6C02074FFC0E0C0E0747FC0E0744BC0E0A8130886820886830882
:205C600086F008E6123D4DAF82E58124FCF581D020EF7003025DFCE5132425F876007F001C
:205C8000C007C020E4C0E0C0E07420C0E07441C0E0A8130886820886830886F008E6123F17
:205CA0002BAE82E58124FCF581D020D007EE7042C007C020E4C0E0C0E07420C0E07441C0B2
:205CC000E0A8130886820886830886F008E6124B06A81308A68208A68308A6F008F6E5811B
:205CE00024FCF581D020D0070FE5132425F8A607808EC007C020E4C0E0C0E07480C0E07471
:205D00003FC0E0A8130886820886830886F008E6123F2BAE82E58124FCF581D020D007EEFF
:205D20006042C007C020A81308E6C0E008E6C0E008E6C0E008E6C0E090000075F02074415D
:205D4000124F5AA81308A68208A68308A6F008F6E58124FCF581D020D0071FE5132425F8B5
:205D6000A607808EE5132425F8A60730043FC020E51324F5F8E6C0E008E6C0E008E6C0E084
:205D8000E51324F8F8E6C0E008E6C0E008E6C0E075822DD002D001D0001206D515811581A5
:205DA0001581D020E5132405F87601804030023DC020E51324F5F8E6C0E008E6C0E008E6B3
:205DC000C0E0E51324F8F8E6C0E008E6C0E008E6C0E075822BD002D001D0001206D515815D
:205DE00015811581D020E5132405F87601E51324FCF87600C200C201C202C203E51324FB4C
:205E0000F8B6FF07E51324FBF87606E513241AF8E4F608F608F608763FE51324FBF8E5137B
:205E20002423F9E6F7E5132423F886078F02EA60027401FDED6047C002C020E4C0E0C0E0D8
:205E40007420C0E07441C0E0E513241AF886820886830886F008E6124B06AB82AC83ADF0AA
:205E6000FEE58124FCF581D020D002E513241AF8A60308A60408A60508A6061A80B0C0204C
:205E8000E513241AF8E6C0E008E6C0E008E6C0E008E6C0E0A8130886820886830886F00842
:205EA000E61242BAA81308A68208A68308A6F008F6E58124FCF581D020A8130886820886F1
:205EC000830886F008E6C0201277CBAB82AC83ADF0FED020E5132416F8A60308A60408A685
:205EE0000508A606E5132416F886820886830886F008E6C0201277F2AB82AC83ADF0FED018
:205F000020C020C003C004C005C006A8130886820886830886F008E6124EFDAB82AC83ADC1
:205F2000F0FEE58124FCF581D020E513241EF8A60308A60408A60508A606E5132424F8E576
:205F4000132406F67F00E5132416F8E60846084608467003025FDA8F060F8F02E513242472
:205F6000F8EE26F9C007C001C020740AC0E0E4C0E0C0E0C0E0E5132416F886820886830887
:205F800086F008E612435CAB82E58124FCF581D020D00174302BF7C020740AC0E0E4C0E0BA
:205FA000C0E0C0E0E5132416F886820886830886F008E6124668AB82AC83ADF0FEE58124B1
:205FC000FCF581D020D007E5132416F8A60308A60408A60508A606025F46EFFA700DEF049C
:205FE000FAE5132424F8EF26F87630E5132423F886068E07E5132422F8A6028F05ED6002A3
:206000007401FCEC70030260FAC002C005C020E513241EF8E6C0E008E6C0E008E6C0E00811
:20602000E6C0E090000075F0207441124F5AAA82AB83ACF0FEE58124FCF581D020E5132459
:206040001EF8A60208A60308A60408A606E513241EF886820886830886F008E6C02012774B
:20606000CBAA82AB83ACF0FED020E5132416F8A60208A60308A60408A606E5132422F886CC
:2060800006E5132422F806E5132424F8EE26F9E5132416F8860674302EF7E5132416F8864A
:2060A000820886830886F008E6C0201277F2AA82AB83ACF0FED020C020C002C003C004C0B9
:2060C00006E513241EF886820886830886F008E6124EFDAA82AB83ACF0FEE58124FCF581B6
:2060E000D020D005E513241EF8A60208A60308A60408A6061DD002025FFD8D078A068E05E6
:20610000E51324FBF8E6600AE51324FBF8E604FC80027C008D03EC2BFCFD2004062002033E
:206120003003010D30000302640BE51324FCF8C3EF96400302640B20010302629030044BD7
:20614000C006C005C002C020E51324F5F8E6C0E008E6C0E008E6C0E0E51324F8F8E6C0E0D5
:2061600008E6C0E008E6C0E075822DD002D001D0001206D5158115811581D020D002D00526
:20618000D006E5132405F80602622330024AC006C005C002C020E51324F5F8E6C0E008E65D
:2061A000C0E008E6C0E0E51324F8F8E6C0E008E6C0E008E6C0E075822BD002D001D000125C
:2061C00006D5158115811581D020D002D005D006E5132405F806804B300348C006C005C005
:2061E00002C020E51324F5F8E6C0E008E6C0E008E6C0E0E51324F8F8E6C0E008E6C0E008EA
:20620000E6C0E0758220D002D001D0001206D5158115811581D020D002D005D006E5132436
:2062200005F806E5132405F88607E51324FCF886048C031CE51324FCF8A604C3ED9B400328
:206240000264F3C007C006C005C004C002C020E51324F5F8E6C0E008E6C0E008E6C0E0E59D
:206260001324F8F8E6C0E008E6C0E008E6C0E0758230D002D001D0001206D515811581158D
:2062800081D020D002D004D005D006D0070F80A1E5132405F88603E51324FCF88607C00630
:2062A0008F061FE51324FCF8A607C3ED9ED006504DC007C006C005C003C002C020E51324D9
:2062C000F5F8E6C0E008E6C0E008E6C0E0E51324F8F8E6C0E008E6C0E008E6C0E07582206A
:2062E000D002D001D0001206D5158115811581D020D002D003D005D006D0070B80A0E51342
:206300002405F8A603E51324FCF8A607300451C006C005C003C002C020E51324F5F8E6C0D2
:20632000E008E6C0E008E6C0E0E51324F8F8E6C0E008E6C0E008E6C0E075822DD002D001EC
:20634000D0001206D5158115811581D020D002D003D005D006E5132405F8EB04F602650118
:20636000300251C006C005C003C002C020E51324F5F8E6C0E008E6C0E008E6C0E0E51324E3
:20638000F8F8E6C0E008E6C0E008E6C0E075822BD002D001D0001206D5158115811581D057
:2063A00020D002D003D005D006E5132405F8EB04F6026501200303026501C006C005C0032B
:2063C000C002C020E51324F5F8E6C0E008E6C0E008E6C0E0E51324F8F8E6C0E008E6C0E050
:2063E00008E6C0E0758220D002D001D0001206D5158115811581D020D002D003D005D00696
:20640000E5132405F8EB04F602650130044BC006C005C002C020E51324F5F8E6C0E008E6ED
:20642000C0E008E6C0E0E51324F8F8E6C0E008E6C0E008E6C0E075822DD002D001D00012D7
:2064400006D5158115811581D020D002D005D006E5132405F80602650130024AC006C005A4
:20646000C002C020E51324F5F8E6C0E008E6C0E008E6C0E0E51324F8F8E6C0E008E6C0E0AF
:2064800008E6C0E075822BD002D001D0001206D5158115811581D020D002D005D006E513C5
:2064A0002405F806805B300358C006C005C002C020E51324F5F8E6C0E008E6C0E008E6C057
:2064C000E0E51324F8F8E6C0E008E6C0E008E6C0E0758220D002D001D0001206D51581150C
:2064E000811581D020D002D005D006E5132405F806800EE5132405F8A607E51324FCF8A6EF
:20650000041AE5132405F88607E5132424F8EA26F98704C007C006C005C002C020E51324DB
:20652000F5F8E6C0E008E6C0E008E6C0E0E51324F8F8E6C0E008E6C0E008E6C0E08C82D040
:2065400002D001D0001206D5158115811581D020D002D005D006D0070F8A041AEC70AAE503
:20656000132405F8A607E51324FBF8E6700302662DC007C006C005C020E51324F5F8E6C05C
:20658000E008E6C0E008E6C0E0E51324F8F8E6C0E008E6C0E008E6C0E075822ED002D00189
:2065A000D0001206D5158115811581D020D005D006D007E5132405F8EF04F68E07E5132437
:2065C00005F88606E51324FBF886048C031CEB60558F030FE5132424F8EB26F98703C0071A
:2065E000C006C005C004C020E51324F5F8E6C0E008E6C0E008E6C0E0E51324F8F8E6C0E02F
:2066000008E6C0E008E6C0E08B82D002D001D0001206D5158115811581D020D004D005D0C6
:2066200006D0070E80A5E5132405F8A606300068E51324FCF8C3ED96505EE5132405F8864A
:2066400007E51324FCF886068E041EC3ED9C5041C007C006C005E51324F5F8E6C0E008E63B
:20666000C0E008E6C0E0E51324F8F8E6C0E008E6C0E008E6C0E0758220D002D001D00012A2
:2066800006D5158115811581D005D006D0070F80B7E5132405F8A607E5132425F8B680035D
:2066A0000267CBE51324F5F8E6C0E008E6C0E008E6C0E0E51324F8F8E6C0E008E6C0E008D3
:2066C000E6C0E0758265D002D001D0001206D5158115811581E5132405F806E5132425F85E
:2066E000E630E741E51324F5F8E6C0E008E6C0E008E6C0E0E51324F8F8E6C0E008E6C0E091
:2067000008E6C0E075822DD002D001D0001206D5158115811581E5132405F806E513242545
:20672000F8C3E496F6E5132425F8C2D575F00AE630E704B2D5F4048430D502F4042430FF99
:20674000E51324F5F8E6C0E008E6C0E008E6C0E0E51324F8F8E6C0E008E6C0E008E6C0E0E0
:206760008F82D002D001D0001206D5158115811581E5132405F806E5132425F875F00AE639
:20678000C2D530E704D2D5F40484E5F030D502F4042430FFE51324F5F8E6C0E008E6C0E0E0
:2067A00008E6C0E0E51324F8F8E6C0E008E6C0E008E6C0E08F82D002D001D0001206D51517
:2067C0008115811581E5132405F806E5132405F88682851381D0130206E7C013858113C035
:2067E00082C083C0F0E5812417F581E5132419F8E4F608F6E5132418F8E5132405F6E513CD
:20680000240EC8E5132417C82405F6E5132405F8E51324F7F987020987060987078A828EEF
:20682000838FF0124BC9FDE51324F7F974012AF7E43E09F709A707EDFC7003027626BC25DD
:206840000280030275E5C200C201C202C203C204C205C206C207E513240AF97700E5132479
:206860000BF97700E513240CF977FFE51324F7F987070987060987058F828E838DF0124B45
:20688000C9FAA3AF82AE83E51324F7F9A70709A70609A7058A04BC2541C000E51324FAF98C
:2068A000E7C0E009E7C0E009E7C0E0A91309E7C0E009E7C0E009E7C0E08C82D002D001D044
:2068C000001206D5158115811581D000E5132419F907B7000209070268108C03BB30004007
:2068E0004AEB24C64045E513240CF9B7FF25E513240BF9E775F00AA42C24D0FAE513240B9D
:20690000F9A702E513240BF9E76003026878D201026878E513240CF9E775F00AA42CFAE5AE
:2069200013240CF9EA24D0F7026878BC2E17E513240CF9B7FF028003026878E513240CF904
